:020000022000DC
:1060000000000420C14403000145030003450300D0
:106010000545030007450300094503000000000093
:106020000000000000000000000000007D9A030056
:106030000D450300000000009D9A03001145030078
:10604000F19B0300134503001345030013450300B0
:1060500013450300134503001345030013450300D4
:1060600013450300134503001345030013450300C4
:1060700013450300134503001345030013450300B4
:1060800013450300D5970300134503001345030090
:10609000134503001345030099CC02001345030088
:1060A0001345030013450300134503001345030084
:1060B000134503001345030000000000000000002A
:1060C00013450300134503001345030005A1030016
:1060D000134503001345030013450300C5B0030037
:1060E000134503001345030013450300000000009F
:1060F0000000000013450300000000007DA1030024
:10610000000000000000000000000000000000008F
:10611000000000000000000000000000000000007F
:10612000000000000000000000000000000000006F
:10613000000000000000000000000000000000005F
:10614000000000000000000000000000000000004F
:10615000000000000000000000000000000000003F
:10616000000000000000000000000000000000002F
:10617000000000000000000000000000000000001F
:10618000000000000000000000000000000000000F
:1061900000000000000000000000000000000000FF
:1061A00000000000000000000000000000000000EF
:1061B00000000000000000000000000000000000DF
:1061C00000000000000000000000000000000000CF
:1061D00000000000000000000000000000000000BF
:1061E00000000000000000000000000000000000AF
:1061F000000000000000000000000000000000009F
:10620000F1EE103A43F08073E1EE103A704700BFB0
:1062100010B5054C237833B9044B13B10448AFF3E0
:1062200000800123237010BD646300200000000083
:10623000A466040008B5034B1BB103490348AFF340
:10624000008008BD0000000068630020A466040010
:10625000154B002B08BF134B9D46A3F5803A002138
:106260008B460F461348144A121A1AF04FF90F4B77
:10627000002B00D098470E4B002B00D098470020F1
:10628000002104000D000D48002802D00C48AFF397
:1062900000801AF0D1F82000290014F09BFF1AF0BA
:1062A000A5F800BF00000800000004200000000066
:1062B0000000000064630020D0980020000000006F
:1062C00000000000704700BF10B501468AB00B48BF
:1062D00006F0DAFC00230446202202A9CDE90233AD
:1062E000CDE90533CDE907330493099304F09EFD0E
:1062F0002146684604F08AFD0AB010BD8C66002075
:1063000030B583B06B4683E8060093E80600054687
:1063100000F0DCF808B103B030BD04460F4807F0C8
:10632000CBFE48B16B783BB19DF800200B4821466D
:106330000DF1020307F0EAFEAB78002BEBD0084822
:1063400003F090FE0028E6D101469DF800200548A4
:106350000DF1020306F0B0FDDDE700BF646400202C
:10636000C86C0020C063002010B50848084C07F036
:1063700081FE084806F0E2FC204606F08BFD204630
:10638000054A0649BDE8104019F0F8BF64640020D2
:10639000C06300208063002000600020B56402001C
:1063A000F8B5034601255D709D703848384C394E6C
:1063B000394F022107F06CFE3F223849334807F07D
:1063C00069FE324807F06AFE2046032106F0DEF936
:1063D00000222946204606F009FA2046042106F04C
:1063E000C3FB20462E4906F097FB2946204606F0BF
:1063F00009FC20464FF47A7106F008FC0C22204676
:10640000062105F05DF82046264905F063F8204690
:10641000254905F061F830462449132206F0C8FCEE
:1064200012222349304606F0BFFC304604F23C6499
:1064300006F0C2FC384606F05DFD0621204603F05A
:10644000CBFD204603F0B0FD204640F2C13103F001
:10645000D7FD3946204603F069FD204603F076FD5E
:106460002946204603F002FE2046F422202103F0B4
:10647000F5FD20461E2103F0EFFD2046002103F02C
:1064800055FE2846BDE8F84007F074B96464002062
:106490008C66002080630020C0630020583904000F
:1064A00020390400C9620200C562020030390400CC
:1064B0004439040010B5044B044640F84C3B03F04B
:1064C0008BFF204610BD00BFC43B040082B002AB6E
:1064D000002003E9060002B0704700BF10B5054C6C
:1064E0002046FFF75DFF21680348BDE8104000F03B
:1064F000E1BE00BF8064002084640020014800F0F9
:1065000027BC00BF8464002010B5029B1A685B683A
:1065100083604260044611F075F8A08110BD00BF91
:106520008389C2899A421ABFC38101200020704723
:1065300000207047704700BF0020704700EB8101CA
:1065400001204A61704700BF10B504468068217B76
:1065500003689B68984700200123E376208320731B
:10656000E06184F8200010BD007B7047A1F10300BA
:10657000B0FA80F040097047A1F10100B0FA80F054
:106580004009704700EB81014869704790F820008E
:10659000704700BF30B4C47E039D022C06D0017644
:1065A0004276EB7803F00303032B01D030BC704735
:1065B00095F90230AA78002BF8DAAB7990F821101F
:1065C000994238BF80F8213004EB4403034402F0C1
:1065D0000F025A73AA889A7301340422DA73C476BC
:1065E00030BC704730B4C47D039D022C06D00175C9
:1065F0004275EB7803F00303032B01D030BC7047E6
:1066000095F90230AA78002BF8DAAB79417F9942EC
:1066100038BF437704EB4403034402F00F025A727D
:10662000AA889A7201340422DA72C47530BC7047A9
:10663000704700BF2DE9F04385B00446ADF80A105D
:10664000039200F122050427002600294AD094F87D
:106650003030042BFDD8DFE803F0030E7A734800D6
:106660000223D4F80910237240F20222012321618F
:10667000A28284F830300DF10A0203A904F110005F
:1066800003F086FA70B3D4F80920137884F8313017
:10669000527884F83220C4F809502946042AA3F11C
:1066A0000203DBB208BF84F83360042A23726375E7
:1066B0002375216184F830701BD0052A5CD0022A32
:1066C0004AD0237F002B78D0012BE38B7CD04BB9B1
:1066D00004F12008BDF80A10C4F8098084F830607D
:1066E0000029B4D105B0BDE8F08394F83220042A23
:1066F000E3D10DF10A0203A904F1100003F048FAF6
:106700000028EFD094F82530032BE1D194F82630FF
:10671000012BDDD194F83830002B69D094F8273064
:10672000002BD5D094F8222084F83530012194F83C
:10673000233084F8331084F8362084F83730C7E7E4
:10674000D4F8091094F8322094F83130A6E794F880
:10675000322094F831309EE70DF10A0203A904F1CA
:10676000100003F015FA0028BCD094F8253084F806
:10677000343004F12008ADE70DF10A0203A904F159
:10678000100003F005FA0028ACD094F83330002B49
:106790009ED0606800289BD094F83520036804F1EF
:1067A0002008CDE90028D3F8009094F8362094F81A
:1067B000373094F83410C8478CE794F83130023BF6
:1067C0009BB20122E383227783B1BDF80A200399AB
:1067D00003E0E383013182B22BB1013B9BB2501E37
:1067E000002AF6D17EE7ADF80A20039126776FE7FD
:1067F00094F82730012B7FF46BAF93E770B590F8D6
:10680000203088B01BB90025284608B070BD04466A
:1068100010F0F8FEE369C01A0028F4DB00230193AE
:1068200004AB0093637CADF80E30227C217BA06822
:106830000DF10E0302F06AF8054668B9BDF80E3096
:10684000022B09D9606938B1026804A90091166861
:10685000DBB22A462146B04710F0D4FE94F821302E
:106860001844E061284608B070BD00BF2DE9F04F24
:106870009FB090F80CB086680593BBF1000F40F014
:10688000FC8080F821B0336804461B688846304697
:106890005946914698470546002800F00681D0F8F1
:1068A00000A0BAF1000F00F0F880059A827104F19F
:1068B0000D030AAA0360009206935A465946A0683F
:1068C000082302F06FFD83468DF82700C8B1C5F894
:1068D00000A02368824A9B68934240F0E880A06849
:1068E000217B03689B68984700230122238323733D
:1068F000E36184F82030E2769DF827001FB0BDE800
:10690000F08F33689DF828205B6807921F46024687
:10691000C5F800A04B4641463046B84720730028D2
:1069200000F0BF809DF82F30A3735A4603465946A6
:10693000A06802F07DFD80468DF82700002840F019
:10694000A0803368217B1B68A871304698470028D7
:1069500000F0AB80059B8371079B002B40F0B1805A
:106960009DF82760002EB4D19DF83980B8F1000F52
:1069700000F0A080DFF870A13346354604F1040929
:106980000DF13C0B17AF02E0984540F29680CDF830
:1069900000B00022217BA0688DF84450CDE90FA9FA
:1069A000ADF850508DF85850ADF85A50ADF86C50C5
:1069B0008DF86E508DF87450CDF84570139715977B
:1069C00002F004FDE27E0136022AF3B2DCD1217B23
:1069D000069BA068022201F011F903464FF47A7079
:1069E0008DF8273010F01AFE237E217BA06800224C
:1069F00002F080FD05468DF8270000287FF469AF7E
:106A00004FF47A7010F00AFE294694F822202046AE
:106A100003F028F905468DF8270000287FF459AFC8
:106A2000034602460146204603F008F92D4B8DF837
:106A3000270029460FAA20460F9303F0CDF8202007
:106A4000A8460DF127070126054600226D101146C4
:106A50000223CDE90167CDF8008020468DF827504C
:106A600003F0D2F8192010F0D9FD9DF82750002D21
:106A7000EBD1284684F8206000E0D9201FB0BDE8A3
:106A8000F08F336885F806B03046217B9B689847C5
:106A90009DF8270084F80CB0F0E7D7201FB0BDE8C0
:106AA000F08FD4201FB0BDE8F08FD620E6E7204657
:106AB000984721E7E37E022B89D0D1238DF8273038
:106AC00007E70AAB0093079B217BA068122B28BF26
:106AD0001223424602F066FC06468DF8270041E785
:106AE00049650200B8390400AC3904004368902BB2
:106AF00000D07047F0B5044683B08F48FFF710FD13
:106B0000002800F0C2808C4A8C4B92F804C0D2E975
:106B100001016D46002285E80300C3E900220DF162
:106B200001010DF1070211F8010FB8B19E78002E96
:106B300000F0D680DF78002F00F0D1801F79002F81
:106B400000F0D3805E79002E00F0D7809E79002E71
:106B500000F0DF80DE79002E00F0EB809142E2D180
:106B6000774ED6E90101367985E803004CEA06063E
:106B70000DF1010111F8010FB8B19F78002F00F05D
:106B8000AB80DF78002F00F0A6801F79002F00F087
:106B9000B0805F79002F00F0B2809F79002F00F065
:106BA000BE80DF79002F00F0C0808A42E2D1654FBD
:106BB000D7E901013F7985E803003E430DF101016A
:106BC00011F8010FB0B19F78002F00F08180DF78BD
:106BD000002F7CD01F79002F00F089805F79002F73
:106BE00000F08F809F79002F00F09580DF79002FD3
:106BF00000F097808A42E3D1534FD7E901013F79F2
:106C000085E803003E430DF1010111F8010F88B141
:106C10009F78002F58D0DF78002F54D01F79002F95
:106C200061D05F79002F6ED09F79002F6FD0DF7910
:106C3000002F7CD08A42E8D14448077981684068B7
:106C40003E4385E803001E700DF1010111F8010FAC
:106C500088B19D78002D33D0DD78002D2FD01D799F
:106C6000002D48D05D79002D4FD09D79002D54D056
:106C7000DD79002D57D08A42E8D193E806002046FE
:106C800003B0BDE8F040FFF73BBB2D48FFF748FCE1
:106C900000287FF438AF2B48FFF742FC00287FF430
:106CA00032AF2948FFF73CFC00287FF42CAF27487F
:106CB000FFF736FC00287FF426AF03B0F0BD0125B6
:106CC0001D44A870D7E701271F44B870B2E7012719
:106CD0001F44B8708EE701271F44B87065E701268E
:106CE0001E44B0703AE70227EEE70226F8E70227D3
:106CF000EEE70227F0E70225E2E70326F0E70327A5
:106D0000EAE70327E4E70327DEE70325D8E70427BC
:106D1000DAE70426E4E70427DAE70425D0E70427C6
:106D2000DAE70527D4E70525CAE70527D4E70527CD
:106D3000CAE70526D4E700BF4C6500209064002018
:106D40005C6500206C6500207C6500208C6500205F
:106D500010B50446FFF7CAFE074802F027FC0648B4
:106D600000F046FF6368984218BF6060BDE81040BD
:106D70000A2010F053BC00BF9C650020354B80F802
:106D8000222070B4036003F13C0643F6084500235B
:106D90004FF48074042281604660C581448343734C
:106DA0000382C36180F8203003764361827469B343
:106DB0008B6F73B3CB6FABB3D1F88030A3B3D1F883
:106DC00084309BB3D1F8883093B3D1F88C302BB397
:106DD000D1F8903073B3D1F894306BB3D1F89830C8
:106DE00063B3D1F89C305BB3D1F8A03053B3D1F882
:106DF000A4304BB3D1F8A83043B3D1F8AC303BB397
:106E0000D1F8B03023B1D1F8B4304BB170BC704779
:106E10000E231E3370BC41F8230070470523F8E7AA
:106E20000F23F6E70123F4E70223F2E70323F0E759
:106E30001346EEE70623ECE70723EAE70823E8E733
:106E40000923E6E70A23E4E70B23E2E70C23E0E764
:106E50000D23DEE7C43904002DE9F04383B0DFF8E9
:106E6000D091CDF800904FF48078ADF804804FF0C9
:106E7000A0466D4695E8060080276B4802F04AFF61
:106E8000F8216948C6F80C7502F0E0FF0021664859
:106E900002F0DCFFC6F8087500F0C004624802F09A
:106EA0009BFFBC425FD03ED8002C00F08E80402C6F
:106EB00036D1CDF80090ADF8048095E806005A4828
:106EC00002F028FFD8215848C6F80C7502F0BEFF22
:106ED0000021554802F0BAFFC6F80875044652482A
:106EE00002F07AFFCDF80090ADF80480A30795E892
:106EF00006004D481FD402F00DFFC6F80C754CF685
:106F0000DA334948ADF800302946022202F06AFF20
:106F1000C6F80875444802F05FFF444B03221A701C
:106F200003B0BDE8F083C02CFAD1404B01221A70A7
:106F300003B0BDE8F08302F0EDFEC6F80C754CF628
:106F4000DA133948ADF800302946022202F04AFF30
:106F5000C6F80875344802F03FFF344B02221A701D
:106F600003B0BDE8F083CDF80090ADF8048095E85B
:106F700006002D4802F0CEFED8212B48C6F80C455D
:106F800002F064FF0021284802F060FFC6F80845BF
:106F90000746254802F020FFCDF80090ADF80480A8
:106FA000BF0795E8060020482DD402F0B3FEC6F8CE
:106FB0000C454CF6DA131C48ADF800302946022285
:106FC00002F010FFC6F80845C4E7CDF80090ADF810
:106FD000048095E80600144802F09CFE4DF2DA1396
:106FE000C6F80C75294602220F48ADF8003002F0B1
:106FF000F9FE0D48C6F8087502F0EEFE0B4B1C704A
:1070000003B0BDE8F08302F085FEC6F80C454CF6EF
:10701000DA330548ADF800302946022202F0E2FEDC
:10702000C6F8084576E700BF606600208C64002043
:1070300080BA8C012DE9F04F4FF0A04585B0802734
:10704000032483469948C5F81C47C5F808750646C9
:10705000DFF85CA2CDF804B04FF4807902F016FEA0
:1070600000234FF40042C5F83C4702ACC5F80825A0
:10707000C5F83037CDF808A0ADF80C9094E80600BC
:10708000304602F047FE41F68A03C5F80C752146EA
:1070900002223046ADF8083002F0A4FEC5F80875AB
:1070A000304602F099FECDF808A0ADF80C9094E8B7
:1070B0000600304602F02EFE42F27A03C5F80C7547
:1070C000214602223046ADF8083002F08BFEC5F8AA
:1070D0000875304602F080FECDF808A0ADF80C909F
:1070E00094E80600304602F015FEC5F80C757A23C8
:1070F000214602223046ADF8083002F073FEC5F892
:107100000875304602F068FE4FF6FF7502E0002D6C
:1071100000F0C680CDF808A0ADF80C904FF0A04765
:1071200094E8060030464FF0800802F0F3FD682135
:10713000C7F80C85304602F089FE0021304602F087
:1071400085FEC7F808858346304602F045FE013DBE
:107150001BF0010FADB2DAD0CDF808A0ADF80C905D
:1071600094E806005148524E02F0D4FD4CF2DA1376
:10717000022221464D48C7F80C85ADF8083002F0D0
:1071800031FE4A48C7F8088502F026FECDF808A06F
:10719000ADF80C9094E80600444802F0BBFD46F2BE
:1071A000D203022221464148C7F80C85ADF80830C9
:1071B00002F018FE3D48C7F80885054602F00CFEAF
:1071C000CDF808A0ADF80C9094E80600284602F02F
:1071D000A1FD40F2EA43C7F80C8502222146284669
:1071E000ADF8083002F0FEFDC7F80885284602F029
:1071F000F3FD4FF4807A0296ADF80CA04FF0A04852
:1072000094E8060028464FF0800902F083FDE8214B
:10721000C8F80C95284602F019FE0021284602F015
:1072200015FEC8F808950746284602F0D5FD7B07ED
:10723000E1D50198FFF710FE0296ADF80CA094E896
:1072400006001A4802F066FD42F2CA032146C8F859
:107250000C9502221548ADF8083002F0C3FD134822
:10726000C8F8089502F0B8FD0296ADF80CA094E8B5
:1072700006000E4802F04EFD4FF4C173C8F80C959D
:10728000214602220948ADF8083002F0ABFD07485C
:10729000C8F8089502F0A0FD002005B0BDE8F08F09
:1072A0004FF0FF3005B0BDE8F08F00BF60660020F2
:1072B00080BA8C0130B583B004460C480191FFF7C9
:1072C000B9FE0B4A0B480C4D55610C490C4D4561FC
:1072D0000C480D4D4D61019B0C4D45610C490D480D
:1072E00048611A0CA270238003B030BD9C65002059
:1072F00098640020BC6400204C650020E0640020FD
:107300005C650020046500206C6500207C65002021
:10731000286500208C65002038B5144C144D20469B
:1073200000F0FEFB214600221248FFF727FD214610
:1073300000221148FFF722FD214600220F48FFF7E7
:107340001DFD214600220E48FFF718FD21460022B0
:107350000C480D4CFFF712FD0C480D490D4A0E4B21
:107360002B60236003600B60136038BD9C650020B8
:107370004C65002098640020BC640020E06400207C
:1073800004650020286500205C6500206C650020F5
:107390007C6500208C650020A03904000120704726
:1073A0000020704700207047002070470020704781
:1073B000002070470020704711F0800F42D1072B4A
:1073C00040D830B4044612B1C079072837D0E07CE9
:1073D000002869D0A07E002868D094F821000028F9
:1073E00066D094F82800002864D094F82F00002874
:1073F00062D094F83600002860D094F83D00002850
:107400005ED094F8440000285CD094F84B0000282B
:107410005AD094F85200002858D094F85900002807
:1074200056D094F86000002854D094F867000028E3
:1074300052D094F86E0038B194F8750000B3002073
:1074400030BC7047002070470E25D9B1C1F302014E
:107450004FF0000061F3C500FAB1E1790131C9B222
:10746000E17101F00701C5EBC50541EA82132C4427
:1074700003F047031843207300F07F0030BC7047CF
:107480000F25E2E7C5EBC50552B16219412313731D
:10749000E27901321846E271D2E703F00701E2E730
:1074A0002C4401202073CBE70125CEE70225CCE751
:1074B0000325CAE70425C8E70525C6E70625C4E76E
:1074C0000725C2E70825C0E70925BEE70A25BCE76E
:1074D0000B25BAE70C25B8E70D25B6E7C1EBC102CD
:1074E00002442DE9F843072303FB0103127B1D7BB4
:1074F0005306884604464FEAC10940F1CF8005F0A3
:10750000070501260827BB1B23441B7BC3F3C203CB
:10751000AB4200F0D480731CDBB2102B00F0BB80B8
:10752000C3EBC3022244DF00127BC2F3C202AA42B1
:1075300000F0C480B31CDBB2102B00F0AC80C3EBB6
:10754000C3022244DF00127BC2F3C202AA4200F04F
:10755000B580F31CDBB2102B00F09D80C3EBC3029F
:107560002244DF00127BC2F3C202AA4200F0A680CE
:10757000331DDBB2102B00F08E80C3EBC30222441C
:10758000DF00127BC2F3C202AA4200F09780731D93
:10759000DBB2102B7FD0C3EBC3022244DF00127B8F
:1075A000C2F3C202AA4200F08980B31DDBB2102BE5
:1075B00071D0C3EBC3022244DF00127BC2F3C202CC
:1075C000AA427BD0F31DDBB2102B64D0C3EBC30205
:1075D0002244DF00127BC2F3C202AA426ED006F13F
:1075E0000803DBB2102B56D0C3EBC3022244DF00EA
:1075F000127BC2F3C202AA4260D006F10903DBB2D9
:10760000102B48D0C3EBC3022244DF00127BC2F32D
:10761000C202AA4252D006F10A03DBB2102B3AD0C2
:10762000C3EBC3022244DF00127BC2F3C202AA42B0
:1076300044D006F10B03DBB2102B2CD0C3EBC302FA
:107640002244DF00127BC2F3C202AA4236D006F106
:107650000C03DBB2102B1ED0C3EBC3022244DF00AD
:10766000127BC2F3C202AA4228D006F10D03DBB29C
:10767000102B10D0C3EBC3022244DF00127BC2F3F5
:10768000C202AA421AD0022E05D094F87530C3F374
:10769000C203AB421BD0E379AB4215D0A9EB08087B
:1076A000A04401220023043488F80D20C8F80840C3
:1076B00088F80C3088F80E30BDE8F8831E46314655
:1076C0002046FFF70BFF1EE7013DE571E6E70F26B9
:1076D0007827F4E7D9B3C37C8B4240D0837E8B42BA
:1076E0003FD090F821308B423DD090F828308B422B
:1076F0003BD090F82F308B422BD090F836308B4215
:1077000035D090F83D308B4233D090F844308B42E6
:1077100031D090F84B308B422FD090F852308B42C2
:107720002DD090F859308B422BD090F860308B429E
:1077300029D090F867308B4227D090F86E308B427A
:1077400025D090F875308B4223D000207047083048
:1077500070470523C3EBC303083018447047012367
:10776000F8E70223F6E70323F4E70423F2E706230E
:10777000F0E70723EEE70823ECE70923EAE70A230B
:10778000E8E70B23E6E70C23E4E70D23E2E70E230B
:10779000E0E70F23DEE700BF41292DE9F843044667
:1077A00049D0C37C8B4200F08E81837E8B4200F0F7
:1077B0008D8190F821308B4200F08B8190F8283039
:1077C0008B4200F0898190F82F308B4200F0878146
:1077D00090F836308B4200F0858190F83D308B4236
:1077E00000F0838190F844308B4200F0818190F862
:1077F0004B308B4275D090F852308B4200F07B8139
:1078000090F859308B4200F0798190F860308B42CB
:1078100000F0778190F867308B4200F0758190F826
:107820006E308B4200F0738190F875308B4200F01F
:107830007181BDE8F883021D002301214FF480709F
:10784000C4F80F20C4F81620C4F81D206262C4F8E2
:107850002B20C4F83220C4F839202264C4F8472011
:10786000C4F84E20E374237784F8213084F82A305A
:1078700084F82F3084F8383084F83D3084F846306E
:1078800084F84B3084F8543084F85930A1826184F4
:107890002186E187A4F84C10A4F85A106083208553
:1078A000E086A4F84400A4F85200C4F85520A4F8D7
:1078B0006000A4F86810A4F86E00A4F87610E371D4
:1078C00084F86230E26584F86730C4F8632084F895
:1078D0007030C4F86A2084F87530C4F87120BDE8AF
:1078E000F8834FF00908C8EBC80323444FEAC809DE
:1078F0001B7B03F007065B0640F1CF8001250827BC
:107900007B1B23441B7BC3F3C203B34200F0D6802E
:107910006B1CDBB2102B00F0BB80C3EBC302224414
:10792000DF00127BC2F3C202B24200F0C680AB1C81
:10793000DBB2102B00F0AC80C3EBC3022244DF00AB
:10794000127BC2F3C202B24200F0B780EB1CDBB282
:10795000102B00F09D80C3EBC3022244DF00127B9A
:10796000C2F3C202B24200F0A8802B1DDBB2102B82
:1079700000F08E80C3EBC3022244DF00127BC2F30F
:10798000C202B24200F099806B1DDBB2102B7FD097
:10799000C3EBC3022244DF00127BC2F3C202B24235
:1079A00000F08B80AB1DDBB2102B71D0C3EBC30298
:1079B0002244DF00127BC2F3C202B2427DD0EB1D33
:1079C000DBB2102B64D0C3EBC3022244DF00127B76
:1079D000C2F3C202B24270D005F10803DBB2102B31
:1079E00056D0C3EBC3022244DF00127BC2F3C202B3
:1079F000B24262D005F10903DBB2102B48D0C3EBD1
:107A0000C3022244DF00127BC2F3C202B24254D04E
:107A100005F10A03DBB2102B3AD0C3EBC3022244B8
:107A2000DF00127BC2F3C202B24246D005F10B0363
:107A3000DBB2102B2CD0C3EBC3022244DF00127B3D
:107A4000C2F3C202B24238D005F10C03DBB2102BF4
:107A50001ED0C3EBC3022244DF00127BC2F3C2027A
:107A6000B2422AD005F10D03DBB2102B10D0C3EBCC
:107A7000C3022244DF00127BC2F3C202B2421CD016
:107A8000022D05D094F87530C3F3C203B34244D03D
:107A9000E379B34201D1013EE671A9EB0808A044A5
:107AA00001220023043488F80D20C8F8084088F823
:107AB0000C3088F80E30BDE8F8831D462946204674
:107AC000FFF70CFD1CE74FF001080CE74FF0020830
:107AD00009E74FF0030806E74FF0040803E74FF00B
:107AE000050800E74FF00608FDE64FF00708FAE644
:107AF0004FF00808F7E64FF00A08F4E64FF00B08DD
:107B0000F1E64FF00C08EEE64FF00D08EBE64FF013
:107B10000E08E8E64FF00F08E5E60F257827CDE7D9
:107B200070B4304A304C314E0260011D00224FF4D7
:107B30008075446001248160C0F80F10C0F81610F1
:107B4000C0F81D104162C0F82B10C0F83210C0F808
:107B500039100164C0F84710858145830585C586C5
:107B6000A0F84450848244840486C4878273C2741B
:107B7000027780F8212080F82A2080F82F2080F8D2
:107B8000382080F83D2080F8462080F84B20A0F86F
:107B90004C40C0F84E10C0F85510C165C0F86310D5
:107BA000C0F86A10C0F871101121A0F85250A0F866
:107BB0005A40A0F86050A0F86840A0F86E50A0F8B5
:107BC0007640317080F8542070BC80F8592080F8DD
:107BD000622080F8672080F8702080F8752080F897
:107BE000B82070470C3A040000083C00586600209A
:107BF000014B1878704700BF58660020002B46D014
:107C000000293ED010B4C47C8C424ED0847E8C427D
:107C10004DD090F821408C423BD090F828408C42C7
:107C200047D090F82F408C4245D090F836408C4297
:107C300043D090F83D408C4241D090F844408C4273
:107C40003FD090F84B408C423DD090F852408C424F
:107C50003BD090F859408C4239D090F860408C422B
:107C600037D090F867408C4235D090F86E408C4207
:107C700033D090F875408C4231D0D6205DF8044B5B
:107C80007047083001710360427100207047D820AE
:107C900070470324C4EBC4040830204442710171CE
:107CA00003605DF8044B002070470124F2E70224D2
:107CB000F0E70424EEE70524ECE70624EAE70724CE
:107CC000E8E70824E6E70924E4E70A24E2E70B24CE
:107CD000E0E70C24DEE70D24DCE70E24DAE70F24CE
:107CE000D8E700BF2DE9F04F054683B00C460029C8
:107CF0004CD0C17CA14200F02F81877EA74200F0CA
:107D0000348190F82110A14200F0318190F82810C0
:107D1000A14200F02E8190F82F10A14200F0CB80FC
:107D200090F83610A14200F0268190F83D10A14253
:107D300000F0238190F84410A14200F0228190F8D5
:107D40004B10A14200F0218190F85210A14200F0A6
:107D5000208190F85910A14200F01F8190F8601026
:107D6000A14200F01E8190F86710A14200F01D8131
:107D700090F86E10A14200F01C8190F87510A1429D
:107D800000F01B81D62003B0BDE8F08F806800288A
:107D900000F0DE8005F1080637467979002900F009
:107DA000D1800139C9B2013101EB4101014403E045
:107DB0000330884200F0C68007789742F8D190F8E7
:107DC00002C0DFF814A218604FEA9C0C62460F2A2A
:107DD00028BF0F224FF0010C0C9BCDF800A00CFA2D
:107DE00002FC4FF480790CF1FF3C4FF0A0486F4645
:107DF000ADF80490A3F800C04FF0800B97E80600A0
:107E0000744801F087FFE223C8F80CB53946022216
:107E100070488DF800308DF8014001F0E3FF6D48A7
:107E2000C8F808B501F0D8FFCDF800A0ADF804906F
:107E300097E80600674801F06DFFD8216548C8F84B
:107E40000CB502F003F80021624801F0FFFFC8F80A
:107E500008B504465F4801F0BFFFB37943B395F816
:107E6000B8301C4344F00204E4B25B4B00934FF47F
:107E70008073ADF804304FF0A04597E806008026E7
:107E8000544801F047FFC5F80C65DA233946022251
:107E900050488DF800308DF8014001F0A3FF4D48A7
:107EA000C5F8086501F098FF002003B0BDE8F08F29
:107EB00004F0F904D9E70521C1EBC10105F108007F
:107EC00046184158002943D0A74258D095F82110B0
:107ED000A14258D095F82810A14258D095F82F10FB
:107EE000A14258D095F83610A14258D095F83D10CF
:107EF000A14258D095F84410A14258D095F84B10A3
:107F0000A14258D095F85210A14258D095F8591076
:107F1000A14256D095F86010A14254D095F8671050
:107F2000A14252D095F86E10A14250D095F875102C
:107F3000A14207D10F21C1EBC101471840580028C9
:107F40007FF42BAF0022DB201A6003B0BDE8F08F76
:107F5000D72003B0BDE8F08FD0F80F1005F10F0661
:107F600008300029F4D00121E5E70221A4E703212C
:107F7000A2E70421A0E706219EE707219CE7022152
:107F8000D9E7082198E70321D5E7092194E70421DF
:107F9000D1E70A2190E70521CDE70B218CE70621E7
:107FA000C9E70C2188E70721C5E70D2184E70821EF
:107FB000C1E70E2180E70921BDE70F217CE70A21F7
:107FC000B9E70B21B7E70C21B5E70D21B3E70E2187
:107FD000B1E700BF6066002080BA8C012DE9F04F48
:107FE0008DB04F7801910C46791E3F29079204937A
:107FF00000F2538299460FF005FBDFF858B2A278E1
:10800000CDF828B04FF480780346ADF82C800DF100
:10801000280A4FF0A04603F59C5412F0010F4FF0D0
:1080200080059AE806008A48029414BF2C46402432
:1080300001F070FEEA23C6F80C5585488DF828300B
:10804000514602228DF8294001F0CCFE029CC6F870
:10805000085504F108027E48029201F0BDFE4B462D
:10806000002B00F01F82BBB2794C0893C146089BDD
:10807000049FCDF828B0BB4228BF3B46ADF82C90FA
:108080009AE806001F462046099301F043FEFBB222
:108090001F4603931221C6F80C552046013F01F0FC
:1080A000D5FEFFB2169B01371F44984618F8011BF6
:1080B000204601F0CBFE4745F8D12046C6F80855CA
:1080C00001F08AFECDF828B0ADF82C909AE80600B1
:1080D000204601F01FFE3A23039FC6F80C550222EA
:1080E000514620468DF828308DF8297001F07AFE2F
:1080F0002046C6F8085501F06FFE019BCDF828B068
:108100001F78ADF82C909AE80600204601F002FE98
:1081100047F02007C6F80C55F223204602225146AC
:108120008DF829708DF8283001F05CFEC6F80855EE
:10813000204601F051FECDF828B0ADF82C909AE819
:108140000600204601F0E6FDC821C6F80C55204681
:1081500001F07CFE0021204601F078FEC6F80855AB
:108160000746204601F038FE3A06E4D5CDF828B09F
:10817000ADF82C909AE80600204601F0CBFD48F2BD
:10818000CA0302225146C6F80C552046ADF82830E5
:1081900001F028FE2046C6F8085501F01DFECDF876
:1081A00028B0ADF82C909AE80600204601F0B2FD08
:1081B000F821C6F80C55204601F048FE0021204663
:1081C00001F044FEC6F808550746204601F004FEBB
:1081D00017F00F0700F040810023CDE905330FF0C1
:1081E00011FA029BC01A002880F23781062F33D083
:1081F0000E2F00F04A81042F00F03B81154B0A93AB
:108200004FF48073ADF82C304FF0A0459AE806008B
:1082100080260F4801F07EFDC5F80C65F8210C485A
:1082200001F014FE00210A4801F010FEC5F80865AF
:108230000446074801F0D0FD019A9378C4F3401436
:1082400064F30003384693700DB0BDE8F08F00BFB3
:108250006066002080BA8C01CDF828B0ADF82C9073
:108260009AE80600204601F055FDF821C6F80C55A5
:10827000204601F0EBFD0021204601F0E7FDC6F8A5
:1082800008550746204601F0A7FD019ACDF828B011
:108290009378ADF82C9087F02007C7F3401767F369
:1082A000000313F0010F937020469AE8060014BFF4
:1082B0008027402701F02EFDC6F80C55EA23204602
:1082C000022251468DF829708DF8283001F08AFD80
:1082D000C6F80855204601F07FFDCDF828B0ADF86E
:1082E0002C909AE80600204601F014FD3A2702225D
:1082F0005146C6F80C552046ADF8287001F072FDC5
:108300002046C6F8085501F067FD169BCDF828B049
:10831000ADF82C909AE80600204693F8008001F012
:10832000F9FC4FF0120CC6F80C55022251462046BB
:108330008DF828C08DF8298001F054FD2046C6F83C
:10834000085501F049FDCDF828B0ADF82C909AE819
:108350000600204601F0DEFC039BC6F80C55022205
:10836000514620468DF829308DF8287001F03AFDED
:108370002046C6F8085501F02FFD019BCDF828B026
:108380001F78ADF82C909AE80600204601F0C2FC58
:1083900047F02007C6F80C55F2232046022251462A
:1083A0008DF829708DF8283001F01CFDC6F80855AD
:1083B000204601F011FDCDF828B0ADF82C909AE8D8
:1083C0000600204601F0A6FCC821C6F80C55204640
:1083D00001F03CFD0021204601F038FDC6F80855AB
:1083E0000746204601F0F8FC3B06E4D5CDF828B05E
:1083F000ADF82C909AE80600204601F08BFC48F27C
:10840000CA0302225146C6F80C552046ADF8283062
:1084100001F0E8FC2046C6F8085501F0DDFCCDF877
:1084200028B0ADF82C909AE80600204601F072FCC6
:10843000F821C6F80C55204601F008FD0021204621
:1084400001F004FDC6F808550746204601F0C4FCBB
:1084500017F00F077FF4C3AE0027049B099A169903
:108460009B1A9BB2114404931691002B7FF4FFAD2D
:10847000C4E6059B079A01339BB20593002A3FF49B
:108480002CAF93427FF429AFB8E6069B0133DBB2F1
:10849000032B06937FF421AFB0E6DA2738460DB000
:1084A000BDE8F08F049FA9E62DE9F04F87B0144690
:1084B0000D4603930FF0A6F8DFF860A1002345EA0C
:1084C000040200F59C590193009209F108090293F6
:1084D0001C460FF097F8A0EB0900002872DA4FF461
:1084E00080784D48CDF810A0ADF8148004AF97E81F
:1084F00006004FF0A0450446802601F00BFC0098D2
:10850000C5F80C65F2238DF8110039462046022289
:108510008DF8103001F066FCC5F80865204601F0C2
:108520005BFC1AE0CDF810A0ADF8148097E80600C7
:1085300001F0F0FBC821C5F80C65204601F086FC6F
:108540000021204601F082FCC5F8086583462046DC
:1085500001F042FC1BF0800F38D10FF053F80346B6
:10856000A3EB0903002B4FF0A0454FF080062046F7
:10857000D8DB4FF48073ADF814304FF0A044CDF841
:1085800010A097E806002448802501F0C3FBC4F83A
:108590000C55F821204801F059FC00211E4801F03B
:1085A00055FCC4F8085500F00F041B4801F014FCFA
:1085B000042C25D00E2C05D1029B0133DBB2032BFA
:1085C000029386D1204607B0BDE8F08FCDF810A009
:1085D000ADF8148097E806000F4801F09BFBC5F842
:1085E0000C6548F2CA030C48ADF810300222394637
:1085F00001F0F8FB0848C5F8086501F0EDFBB8E7A5
:10860000019B039A01339BB20193002A3FF461AFAF
:1086100093427FF45EAFD5E76066002080BA8C019C
:108620002DE9F04F2DED028B89B09E468846B54D61
:1086300003914FF480738978ADF81C3084464FF075
:10864000A044BEF8000006951346002798F80120C4
:10865000019006AE11F0020FAEF80070AA48059224
:108660004FF0800796E8060008EE903A9DF85430E7
:10867000CDF808E014BF4FF020084FF0100808EEC6
:1086800010CA0493DDF850B001F044FBC4F80C7537
:10869000EA239D488DF81830314602228DF8198062
:1086A00001F0A0FB9848C4F80875044601F094FB5B
:1086B0000095039A18EE903A127818EE100A0021ED
:1086C000FFF7F2FE0628074600F0A180002840F0E0
:1086D0000C81009B06934FF48078ADF81C804FF01E
:1086E000A04596E8060020464FF0800901F012FBF5
:1086F000C821C5F80C95204601F0A8FB3946204654
:1087000001F0A4FBC5F808958246204601F064FB01
:108710001AF0040F00F0EF80009B0693ADF81C8068
:1087200096E80600204601F0F5FAC5F80C953021D0
:10873000204601F08BFB3946204601F087FBC5F847
:1087400008958046204601F047FB019B019800995F
:1087500006919845C8BF5FFA83F8029B1D88451BA8
:108760004FF480732DB2ADF81C3025EAE5754FF05B
:10877000A049454596E806004FF0800A2046A8BF6C
:10878000454601F0C7FA0821C9F80CA5204601F0BA
:108790005DFB2A460021584617F0B8FE59462A4686
:1087A000204601F01FFB2046C9F808A501F014FB84
:1087B000009906914FF48073ADF81C3096E80600DE
:1087C000204601F0A7FA40F2CA430222C9F80CA5DC
:1087D00031462046ADF8183001F004FBC9F808A571
:1087E000204601F0F9FA029A138843449BB21380A1
:1087F000059A9045AB4453D30198834250D2049BD1
:10880000002B3FF456AF18460EF008FF51E7009BCF
:1088100006934FF48078ADF81C804FF0A04596E8A1
:1088200006008027204601F075FAC5F80C75F8217E
:10883000204601F00BFB0021204601F007FBC5F8A4
:1088400008758146204601F0C7FA0399009A8B7893
:10885000ADF81C8089F01009C9F3001969F34103D0
:10886000069213F0020F8B70204696E8060014BFA4
:108870004FF020084FF0100801F04CFAC5F80C75C5
:10888000EA232046022231468DF819808DF81830EF
:1088900001F0A8FAC5F80875204601F09DFA08E72E
:1088A000184B06934FF48073ADF81C304FF0A04581
:1088B00096E806001448802601F02CFAF8211248A8
:1088C000C5F80C6501F0C2FA00210F4801F0BEFAAC
:1088D000C5F8086504460C4801F07EFA039A9378BF
:1088E000C4F3001464F341039370384609B0BDEC3F
:1088F000028BBDE8F08FF027384609B0BDEC028B43
:10890000BDE8F08F80BA8C016066002070B584B03D
:108910000DF10A051C460026009503AB254603967B
:10892000ADF80A6004469DF82460FFF7DBF948B90A
:10893000089B0093BDF80A20039901962B46204618
:10894000FFF76EFE04B070BD2DE9F04F8BB004ACA4
:108950009DF85470009400261D4605AB0596ADF8B1
:10896000106003979DF850609DF85890BDF85C80AA
:10897000BDF860A0BDF864B01B9F02920446FFF7EB
:10898000B1F9844618B160460BB0BDE8F08F654B75
:1089900008934FF48073ADF82430039B8DF81A30A0
:1089A00008AB93E8060060488DF81B90ADF81C807A
:1089B0008DF818508DF81960ADF81EA001F0AAF9D5
:1089C0004FF0A04358488022C3F80C25222180464E
:1089D00001F03CFA0DF1180919F8011B404601F0AD
:1089E00035FA08AB9945F7D14FF0A0438022C3F880
:1089F00008254D4801F0F0F9BDF81030029A102119
:108A00002046FFF751FD84460028BCD11A9B6DB269
:108A1000002B00F08180002D059936DA8B7843F029
:108A200002038B70BAF1000F78D0A0461A9CCDF8E3
:108A30000CA081465546BDF81020ADF812B00DF1DE
:108A40001203CDE900494046FFF7EAFD039B0628E3
:108A50000146A3EB050E844608AB2246384630D0CB
:108A6000002990D13FB13E68BDF81210D6F800A0A1
:108A7000ADF820E0D047BDF81230ED1A5B45ADB23D
:108A80004ED3002D4CD00599D5E78878BDF810203D
:108A900040F0010088701A9800905B462046FFF76E
:108AA0009DFA844600287FF46EAF8021029ABDF8BB
:108AB00010302046FFF7F8FC844660460BB0BDE856
:108AC000F08F184A08924FF48073ADF8243008AB49
:108AD00093E806004FF0A04A134801F01BF98023E9
:108AE000CAF80C35F821104801F0B0F900210E4801
:108AF00001F0ACF980220346CAF808250A489A46D4
:108B000001F06AF905998AF0200A8B78CAF3401AB5
:108B10006AF341038B708EE7002DC6DAA021C5E70A
:108B20004446FBE780BA8C01606600202DE9F047DF
:108B30000446806888B000284FD00806A37347D445
:108B4000072A45D8E07C002800F02582A07E002876
:108B500000F0258294F82100002800F0248294F887
:108B60002800002800F0238294F82F00002800F04D
:108B7000228294F83600002800F0218294F83D000B
:108B8000002800F0208294F84400002800F01D82A4
:108B900094F84B00002800F01A8294F85200002844
:108BA00000F0178294F85900002800F0148294F81D
:108BB0006000B8B194F86700002800F00E8294F8C5
:108BC0006E00002800F00B8294F87500002867D032
:108BD000D426304608B0BDE8F087D726304608B026
:108BE000BDE8F0870C2000295CD0C1F3020502F03B
:108BF0000702C0EBC00042EAC505204405F07F052E
:108C00000573002DE4D0E27CAA4251D0A27EAA4294
:108C100000F0B18194F82120AA4200F0AE8194F8CE
:108C20002820AA4200F0AB8194F82F20AA4200F03D
:108C3000A88194F83620AA4200F0A58194F83D203E
:108C4000AA4200F0A28194F84420AA4200F09F8139
:108C500094F84B20AA4200F09C8194F85220AA423A
:108C600000F09B8194F85920AA4200F09A8194F870
:108C70006020AA4200F0998194F86720AA4200F08F
:108C8000988194F86E20AA4200F0978194F875209C
:108C9000AA4200F09681D626304608B0BDE8F0879B
:108CA0000F20A0E7C0EBC000204401250573AAE710
:108CB0000122C2EBC202A118052700228B732046B5
:108CC000CDE90622CDE90422CDE902220195134621
:108CD00011460097FFF738FE06464FF496700EF0E7
:108CE0009DFC002E3FF475AFE37CAB4200F0798130
:108CF000A37EAB4200F0778194F82130AB4200F0C4
:108D0000748194F82830AB4200F0718194F82F30D0
:108D1000AB4232D094F83630AB4200F06A8194F81E
:108D20003D30AB4200F0678194F84430AB4200F034
:108D3000648194F84B30AB4200F0618194F852307A
:108D4000AB4200F05E8194F85930AB4200F05B8199
:108D500094F86030AB4200F0588194F86730AB4231
:108D600000F0558194F86E30AB4200F0528194F8D7
:108D70007530AB427FF42DAF0F27C7EBC7032344F9
:108D80004FEAC70A1B7B03F007085B0640F1E2804D
:108D900001254FF00809A9EB050323441B7BC3F30E
:108DA000C203434500F0E2806B1CDBB2102B00F0E5
:108DB000CA80C3EBC30222444FEAC309127BC2F349
:108DC000C202424500F0D180AB1CDBB2102B00F098
:108DD000BA80C3EBC30222444FEAC309127BC2F339
:108DE000C202424500F0C180EB1CDBB2102B00F048
:108DF000AA80C3EBC30222444FEAC309127BC2F329
:108E0000C202424500F0B1802B1DDBB2102B00F0F6
:108E10009A80C3EBC30222444FEAC309127BC2F318
:108E2000C202424500F0A1806B1DDBB2102B00F0A6
:108E30008A80C3EBC30222444FEAC309127BC2F308
:108E4000C202424500F09180AB1DDBB2102B7AD0FC
:108E5000C3EBC30222444FEAC309127BC2F3C2022E
:108E6000424500F08280EB1DDBB2102B6BD0C3EBD0
:108E7000C30222444FEAC309127BC2F3C202424535
:108E800073D005F10803DBB2102B5CD0C3EBC30237
:108E900022444FEAC309127BC2F3C202424564D0A6
:108EA00005F10903DBB2102B4DD0C3EBC302224402
:108EB0004FEAC309127BC2F3C202424555D005F105
:108EC0000A03DBB2102B3ED0C3EBC30222444FEAAD
:108ED000C309127BC2F3C202424546D005F10B031F
:108EE000DBB2102B2FD0C3EBC30222444FEAC309DD
:108EF000127BC2F3C202424537D005F10C03DBB24C
:108F0000102B20D0C3EBC30222444FEAC309127BCB
:108F1000C2F3C202424528D005F10D03DBB2102B8B
:108F200011D0C3EBC30222444FEAC309127BC2F340
:108F3000C202424519D0022D05D094F87530C3F312
:108F4000C203434567D0E379434503D108F1FF38B5
:108F500084F80780AAEB0707274400230434012282
:108F6000BC607A733B73BB7333E61D4629462046CB
:108F7000FEF7B4FA0FE702229BE6032299E60422E9
:108F800097E6052295E6062293E6072291E6082257
:108F90008FE609228DE6012025E60A2289E60220D5
:108FA00021E60B2285E603201DE60C2281E6042043
:108FB00019E60D227DE6052015E60E2279E606204B
:108FC00011E60F2275E607200DE608200BE60920C2
:108FD00009E60A2007E60B2005E60D2003E60E2031
:108FE00001E60127C9E60227C7E60327C5E60427ED
:108FF000C3E60627C1E60727BFE60827BDE609271F
:10900000BBE60A27B9E60B27B7E60C27B5E60D271E
:10901000B3E60E27B1E60F254FF07809A6E700BFAB
:109020002DE9F04F85B0564F9DF838B0DFF86081DC
:10903000019000EB8105164699460024A86F03684D
:10904000D3F804A0BA4509D1D3F800A0C2451DD178
:109050004FF0000A504605B0BDE8F08F5B464A4627
:109060003146D047E02882461FD13EB306F11E03A9
:109070000199444A51F8230003685B69934244D143
:10908000A86F0368D3F800A0C245E1D05B464A460A
:109090003146D0470D2882463CD1E3B2022B3BD863
:1090A00064200EF0BBFA0134C8E70D2864D1E3B2A6
:1090B000022BF5D9504605B0BDE8F08F324A029236
:1090C0004FF48073ADF80C3002AB93E806002F48E4
:1090D00000F020FE4FF0A04A02AB19468023CAF8E8
:1090E0000C3502224FF4F5732848ADF8083000F033
:1090F00079FE8023CAF80835244800F06DFE66200A
:109100000EF08CFAA86F03689EE749469847A86F4F
:10911000036899E700289BD05EB1019B194A1E366F
:1091200053F8260003685B69934293D049469847F9
:1091300090E7154B02934FF48073ADF80C3002ACFE
:109140004FF0A04594E806008026104800F0E2FDAC
:109150004FF4F5732146C5F80C6502220B48ADF8B3
:10916000083000F03FFE0948C5F8086500F034FEFD
:1091700066200EF053FA6DE7002881D06AE700BF41
:10918000316502003565020080BA8C0160660020FE
:10919000A97302002DE9F04F2DED068B93B01D460B
:1091A00009930DF1300E002385730DF1340C8568A1
:1091B00007930F46C0F808E019460393019316463B
:1091C0001A4606231224CDF818C000934FF0010C64
:1091D0004FF40063CDE90444ADF83030CDF808C059
:1091E0003C24802380468DF83240FFF7ADFBC8F861
:1091F000085000285FD1BDF83C30DFF8A0A1DFF8AF
:10920000A0B109EE903ABDF83E300AEE103A9DF852
:1092100038300B939DF83930B94608EE106A08F1E2
:10922000740608EE907A34460A9609EE103A05461E
:1092300008F1B4074E460FE0136A5B451ED19369EF
:1092400054498B4225D1D369534A934240F08780D9
:10925000A74205F1010533D054F8040F5FFA85F9F0
:109260000028F5D0026813695345E5D098470028D7
:10927000EED120680268136A5B45E0D019EE101A3F
:1092800098470028E4D020684249026893698B42DD
:10929000D9D01AEE102A19EE901A9847002875D0E6
:1092A000099B0093494618EE103A32464046FFF7B4
:1092B000B7FED128CCD013B0BDEC068BBDE8F08F43
:1092C0000A9EDFF8D890DFF8D8A0DFF8C8B00024F5
:1092D00003E0B74204F1010446D056F8040FE5B2AA
:1092E0000028F6D0026813694B451CD1136A534518
:1092F00021D193695B4528D1D369274A934240D154
:10930000099B009318EE902A18EE103A2946404621
:10931000FFF786FE00F0F703D12BDAD013B0BDECD7
:10932000068BBDE8F08F98470028D2D130680268DC
:10933000136A5345DDD019EE101A98470028DFD084
:109340003068026893695B45D6D01AEE102A19EE90
:10935000901A98470028BCD130680268CCE70B9976
:10936000984700289CD173E7099B18EE102A18EE45
:10937000901A4046FFF7DAFB13B0BDEC068BBDE850
:10938000F08F0B9998470028A3D1B9E720680268AD
:1093900059E700BF39650200A1730200B5730200EE
:1093A0009D73020070B588B000240C9E0593049351
:1093B000012506230093CDE9014506960794039401
:1093C0008023FFF7C1FA08B070BD00BF2DE9F0435C
:1093D00099B000251C464FF002080923062707957F
:1093E000039508ADCDE9053504930194CDF80880C7
:1093F0000097802305460E469146FFF7A5FA98B9D7
:10940000209B079308AB0693BDF822304FF0400C29
:10941000CDE90280CDE9043CCDE900744A463146ED
:1094200028468023FFF790FA19B0BDE8F08300BF0B
:109430002DE9F04188B00DF10A0400941F46002484
:1094400003AB0394ADF80A4005461646FEF74AFC06
:10945000044638B14FF496700EF0E0F8204608B09C
:10946000BDE8F081214B06934FF48073ADF81C30BA
:109470000DF1180898E806004FF4A0631C488DF819
:1094800012708DF813400594ADF8103000F042FCD6
:109490004FF0A04316488022C3F80C25222107462E
:1094A00000F0D4FC04AC14F8011B384600F0CEFCEC
:1094B0004445F8D14FF0A04380270D48C3F8087504
:1094C00000F08AFCBDF80A30324610212846FEF72B
:1094D000EBFF04460028BDD1BDF80A3032463946BC
:1094E0002846FEF7E1FF0446B4E700BF80BA8C01CE
:1094F000606600202DE9F04188B00DF10A040027D4
:109500001E46009403AB044615460397ADF80A7057
:10951000FEF7E8FB10B108B0BDE8F081214B0693DF
:109520004FF480730146ADF81C3006AF4FF4106362
:109530001D488DF81310059197E806008DF812600C
:10954000ADF8103000F0E6FB4FF0A0431648802243
:10955000C3F80C252221804600F078FC04AE16F8F2
:10956000011B404600F072FCBE42F8D14FF0A04310
:1095700080260D48C3F8086500F02EFCBDF80A30BF
:109580002A4610212046FEF78FFF0028C3D1BDF8E0
:109590000A302A4631462046FEF786FF08B0BDE86D
:1095A000F08100BF80BA8C01606600202DE9F04791
:1095B0004FF0A04582B0D5F81035DA040446C3F365
:1095C000003740F1C581714B1B78032B00F2D48228
:1095D000DFE813F0D000CB00C900040001266C4D79
:1095E0002B7803F0F003102B00F09982A06F28B1C4
:1095F0000368684ADB68934240F07982E06F28B1E3
:109600000368644ADB68934240F06F82D4F88000BC
:1096100028B103685F4ADB68934240F06482D4F863
:10962000840028B103685B4ADB68934240F05982AA
:10963000D4F8880028B10368564ADB68934240F0AA
:109640004E82D4F88C0028B10368524ADB689342FA
:1096500040F04382D4F8900028B103684D4ADB689B
:10966000934240F03882D4F8940028B10368494A04
:10967000DB68934240F02D82D4F8980028B103684B
:10968000444ADB68934240F02282D4F89C0028B11F
:109690000368404ADB68934240F01782D4F8A00088
:1096A00028B103683B4ADB68934240F00C82D4F84F
:1096B000A40028B10368374ADB68934240F0018276
:1096C000D4F8A80028B10368324ADB68934240F01E
:1096D000F681D4F8AC0028B103682E4ADB689342C7
:1096E00040F0EB81D4F8B00028B10368294ADB6868
:1096F000934240F0E081D4F8B40028B10368254AD1
:10970000DB68934240F074812B78402B00F0758128
:1097100000F2DE80202B00F0F781302B40D11E4B71
:1097200000934FF48073ADF804306C464FF0A046C0
:1097300094E806001948802700F0ECFA4FF4F5731E
:109740001648C6F80C7521460222ADF8003000F02C
:1097500049FB1248C6F8087500F03EFB40232B7009
:1097600002B0BDE8F087002639E7094D13232B70BE
:1097700000263BE7064D2B7803F0F003102B00F09A
:109780002D8111232B70002630E700BF8C64002050
:1097900058660020B173020080BA8C016066002018
:1097A000112BDDD1A06F002384F8B83028B10368F5
:1097B0008B4A9B68934240F0DD81E06F28B10368DB
:1097C000874A9B68934240F0D381D4F8800028B147
:1097D0000368834A9B68934240F0C881D4F88400B0
:1097E00028B103687E4A9B68934240F0BD81D4F85B
:1097F000880028B103687A4A9B68934240F0B2819E
:10980000D4F88C0028B10368754A9B68934240F0F5
:10981000A781D4F8900028B10368714A9B689342ED
:1098200040F09C81D4F8940028B103686C4A9B688E
:10983000934240F09181D4F8980028B10368684AB7
:109840009B68934240F08681D4F89C0028B103685D
:10985000634A9B68934240F07B81D4F8A00028B112
:1098600003685F4A9B68934240F07081D4F8A4007B
:1098700028B103685A4A9B68934240F06581D4F846
:10988000A80028B10368564A9B68934240F05A8169
:10989000D4F8AC0028B10368514A9B68934240F069
:1098A0004F81D4F8B00028B103684D4A9B689342B9
:1098B00040F04481D4F8B40028B10368484A9B685A
:1098C000934240F0398112232B7002B0BDE8F0873B
:1098D000512B00F00E81802B0DD100223346204603
:1098E0001146FFF757FC002875D0D2283FF438AF57
:1098F000A0232B7034E7502B7FF432AF394B009309
:109900004FF48073ADF804304FF0A04402AB13E97C
:1099100006003548802600F0FDF9C4F80C65C82122
:10992000314800F093FA00212F4800F08FFAC4F874
:10993000086504462C4800F04FFA63067FF510AF27
:1099400051232B700DF05EFE284B1430186007E792
:10995000244B00934FF48073ADF804306E4696E8C4
:10996000060021484FF0800800F0D4F9C5F80C85B6
:10997000C8211D4800F06AFA39461B4800F066FA13
:10998000C5F808850546184800F026FA15F02005A8
:1099900040F0CD80134B00934FF48073ADF804304A
:1099A0004FF0A04796E806004FF080080E4800F000
:1099B000B1F9C7F80C85CA230B488DF80150314620
:1099C00002228DF8003000F00DFA0748C7F808852C
:1099D00000F002FAF7E590232B70C1E6002605E6B9
:1099E000AD73020080BA8C01606600205C660020C6
:1099F00098472B78402B7FF48BAEDFF890A1CDF801
:109A000000A04FF48079ADF804904FF0A0476E4667
:109A100096E806005A484FF0800800F07BF9E821EC
:109A20005748C7F80C8500F011FA0021544800F09F
:109A30000DFAC7F808850446514800F0CDF914F036
:109A400001047FF48DAECDF800A0ADF8049096E847
:109A500006004B4800F05EF9D8214948C7F80C854C
:109A600000F0F4F92146464800F0F0F9C7F80885FF
:109A70000446434800F0B0F9CDF800A0ADF80490DA
:109A800096E806003E4800F045F944F00804DA2361
:109A9000C7F80C853A488DF80030314602228DF81F
:109AA000014000F09FF93648C7F8088500F094F9A6
:109AB00050232B7054E698471DE6984712E69847C6
:109AC00007E69847FCE59847F1E59847E6E59847AB
:109AD000DBE59847D0E59847C5E59847BAE598474C
:109AE000AFE59847A4E5984799E598478EE59847EC
:109AF00084E50DF087FD234B1B68C01A0028FFF694
:109B00002FAE80232B70E8E60DF07CFD1D4B1B680B
:109B1000C01A0028FFF624AE30232B70FFE50DF0AD
:109B200071FD184AC830202310602B705EE5204676
:109B3000FDF792F920252DE79847C4E69847B9E646
:109B40009847AEE69847A3E6984798E698478DE68B
:109B5000984782E6984777E698476CE6984761E62B
:109B6000984756E698474BE6984740E6984735E6CB
:109B700098472AE6984720E6034D002636E500BFC1
:109B8000606600205C6600205866002080BA8C0168
:109B90000368FBB170B40479A4B11388BBB14379F5
:109BA0000E68056836781B1BEE540379013B037180
:109BB00013880C68013B01349BB213800C6004795C
:109BC000002CEBD14379037170BC01207047002059
:109BD00070BC70470020704770B598B04023079262
:109BE0000391017B80680593002208AE8025222422
:109BF00006230093CDE90124069604958123FEF700
:109C0000A3FE18B070BD00BF70B588B00392029378
:109C10009DF83050BDF834400E9E0A460923017B62
:109C20008068019500250093CDE90444CDE90665DF
:109C30002123FEF789FE08B070BD00BF30B589B0A2
:109C4000CDE90123002403910A25017B806800955A
:109C5000CDE90644CDE9044422462123FEF774FEF3
:109C600009B030BD10B588B00023019203910B24D8
:109C7000017B80680293CDE90633CDE904331A46AF
:109C800000942123FEF760FE08B010BD437C03B1B1
:109C9000704730B54FF4807285B002820321FF22F5
:109CA000019304468DF803208DF806208DF80510E9
:109CB000827B417B8DF800204FF080451A4602954B
:109CC0008DF80110057BC373694603938DF802502C
:109CD00010F004F8A37B1F2B86BF03F01F030C4A70
:109CE0004FF0A04203F5E07340F2013142F8231037
:109CF000637B1F2B86BF03F01F03054A4FF0A04272
:109D000003F5E07340F2033142F8231005B030BD93
:109D10000003005010B483B002AB03E906009DF8C5
:109D200005109DF804200368013918BF01210024A3
:109D3000022AC3F800450C460174C27332D0032ACC
:109D40002DD0012A28D0224A0099B2FBF1F2B2F5B7
:109D5000007FC3F8544504D2FF2A0DD94FF080612B
:109D600001E04FF000710722C3F82415C3F8002565
:109D700003B05DF8044B70477F2A16D83F2A17D8E6
:109D80001F2A18D80F2A19D8072A02D811498B423E
:109D900017D04FF00041E6E741F00204D3E741F06D
:109DA0000604D0E741F00404CDE74FF00061DAE7A4
:109DB0004FF08051D7E74FF00051D4E74FF080418A
:109DC000D1E7032A8CBF4FF020614FF0A051CAE7C2
:109DD0000090D00300F0024003680022C3F8002581
:109DE000704700BF8AB32DE9F041074684B00C46A6
:109DF00015464FF6FF7845452E464FF0000269465E
:109E00003846009428BF464654B1CDE90164039614
:109E100010F0A6F8AD1B3444EDD104B0BDE8F081DC
:109E20004FF6FF7804E045452E46009428BF46468D
:109E3000002269463846CDE90144039410F090F8B9
:109E4000AD1BF0D104B0BDE8F081704730B587B0EC
:109E500001230D460DF10704002202A9CDE90334C8
:109E60008DF807500294059310F07AF89DF80700DA
:109E700007B030BD094A0A4B30B4D2E90601146A72
:109E80001C7300220124074D1C7198735973DA73F7
:109E90001A821D609A6030BC704700BF0C400400FD
:109EA0006066002000F0024072DF704773DF704789
:109EB00077DF704738B5054608460C4602F0F2F9E0
:109EC000102803D080280ED0012038BDEB7F2288D7
:109ED0001B2B0EDCE9180320E85448704A80EB7F06
:109EE0000433EB77F0E76368002BEDD0E97F0D29B1
:109EF00001DD002038BD6A18112068540721517017
:109F000058681C689968DB68C2F80E30C2F8060011
:109F1000C2F80240C2F80A10EB7F1233EB7701203F
:109F200038BD00BF0022C2770270704700B50246FC
:109F3000D1E9020183B06B4683E80300194610465D
:109F4000FFF7B8FF03B05DF804FB00BFF0B589B0C0
:109F5000064620221348694602F0F2FDF37FC2183C
:109F60001D2A0CDDC3F11D04E4B2E2181D2A4FF0D6
:109F70000005D8BF082705DD284609B0F0BD044616
:109F800001250927F218601CF05469465770901C8F
:109F9000224616F093FAF27F023214442846F477F0
:109FA00009B0F0BD8C66002010B50446094802F0E7
:109FB00025FEE37F1C2B01DD002010BDE2180221ED
:109FC000E1540A2390705370E37F0333E377012059
:109FD00010BD00BF8C660020C27F1C2A01DD00205E
:109FE000704710B403469C18022098540120A170B9
:109FF0006070DA7F0332DA775DF8044B704700BF98
:10A00000C37F1B2B01DD0020704710B4C21803244E
:10A01000C454192351805370C37F0433C3775DF850
:10A02000044B0120704700BF10B4084A084C09498E
:10A0300002620022C0E90A41C0E90C225DF8044B2B
:10A040000270C27742628263704700BFFF01010065
:10A050002000F40020001E00C18570470185818525
:10A060004285704790F82300704700BF80F82210A7
:10A07000704700BFF0B5154605EB8503274A89B048
:10A08000044603EB830300200E469B0011680290F8
:10A09000CDE90460ADF8143094F821308DF8083023
:10A0A000CB07CDE90600039009D41D491D4BC87F9D
:10A0B000E77F988101201C6099609F80106019499A
:10A0C00002AA04F12000FFF7EFFE10B1002009B052
:10A0D000F0BD94F820101448019102F08FFD019911
:10A0E00002460120FFF7E4FE0028EFD194F820009B
:10A0F0000121FFF7DBFE0028E8D10B4802F0DCFD70
:10A10000628EA68595424FF0010094BF521B921AB1
:10A11000628684F8230009B0F0BD00BF7466002099
:10A12000046D0020786600208C660020F0B50023C6
:10A1300061F30F032D4D044661F31F4389B00363A0
:10A14000FA21284602F062FDE68D2949278D08682C
:10A15000049706EB860303EB830300229B00059222
:10A16000ADF8143094F8213002928DF80830C3070E
:10A17000CDE9062203920BD41E4BE27F95F8970699
:10A180009A8005F5CF6501221C609D6098810A6068
:10A19000184902AA04F12000FFF786FE10B1002042
:10A1A00009B0F0BD94F820101048019102F026FD8E
:10A1B000019902460120FFF77BFE0028EFD194F8B9
:10A1C00020000121FFF772FE0028E8D1074802F0C5
:10A1D00073FD638EA7859E424FF0010094BF9B1BC9
:10A1E000DB1A638684F8230009B0F0BD8C6600207A
:10A1F000746600207866002030B50B888D88112B9E
:10A2000085B0044605D0262B33D0102B25D005B0C1
:10A2100030BD436AEB40DB07F9D52E4801F030F939
:10A220000028F4D1636A94F82310012202FA05F59C
:10A2300023EA050363620029E9D194F82230002B58
:10A24000E5D0238E23486386FA2102F0DFFCE28DFD
:10A25000218D2046FFF70EFFD9E7CB7B012BD6D10E
:10A26000426A03FA05F515430023456280F823305E
:10A27000CDE70B7A012BCAD1002380F823304FF4AD
:10A28000FA71144802F0C2FC238E5BB1658E95B161
:10A29000A36B0BB19847658E618D2A462046FFF768
:10A2A000E9FEB4E7A36B03B19847618D0022204615
:10A2B000FFF7E0FEABE7074802F012FD626B002AF1
:10A2C000A5D0009503AB29462846039510F066F902
:10A2D0009DE700BF8C66002075DF704710B44FF01B
:10A2E00010144FF448010022C0E90041C0E90222E5
:10A2F0005DF8044B704700BF014800F0C5BE00BFC9
:10A30000786D0020F8B500250D4F2E4601E0142D84
:10A3100014D0A9B2384602F0B7FC01350446002833
:10A32000F5D000F063FD0028F1D0204600F068FD74
:10A33000022804BF0136F6B2142DEAD13046F8BD2A
:10A340008C66002070B58E881B480C4694B0314650
:10A3500002F09AFC23881A2B05D01F2B1CD0102B3F
:10A360000FD014B070BD054600F042FD0028F8D0B3
:10A37000284600F03FFD0028F3D1284600F0C0FD3C
:10A38000EFE7694600F0A4FD0028EAD06A463146AE
:10A390000A4801F005FCE4E754F8080F61686B46D1
:10A3A00003C33046BDF80030ADF802306946FFF710
:10A3B00093FF14B070BD00BF8C660020AC66002017
:10A3C000AADF7047ABDF7047ACDF7047ADDF704787
:10A3D000AEDF7047B0DF7047704700BF10B504466E
:10A3E00010F05AFF204610BDF0B5794B04461B68AB
:10A3F0000361061D97B0304601F062FF94F82630E5
:10A40000206913F0320208BF84F8272013F00C03F0
:10A4100008BF84F828300DF10102694601F032FFCF
:10A4200094F827209DF8010015070DD09DF8001025
:10A4300002F00F0301F00F059D424FEA121269D29C
:10A4400043EA021284F8272094F8283019070BD029
:10A4500003F00F0100F00F058D424FEA131365D290
:10A4600041EA031384F8283094F8261011F03003E1
:10A4700040F092800FAD0F93C5E90133C5E9033376
:10A480008DF83C10AB610021ADF809109DF80A1061
:10A49000A0691493012363F342018DF808208DF81D
:10A4A0000A1008B1037853BBA37F13B104F11E0354
:10A4B000129394F8292005960023D207CDE907339B
:10A4C00054BFE389E089ADF81C3058BF184604F149
:10A4D00027010691ADF82000294604F12A03656999
:10A4E000099505AA0020FFF76BFF054620B9637F99
:10A4F00043BB237B002B64D0284617B0F0BD1090DF
:10A5000016F00DFF02AB80B2ADF84400ADF8460086
:10A510001393C9E74FEA111101D1914290D30A4632
:10A520002B4643EA021284F827208DE74FEA1010E9
:10A5300001D1984294D30346294641EA031384F893
:10A54000283091E7ADF80D009DF80E2094F82760B3
:10A550000C90012363F3420242F608118DF80E209D
:10A560008DF8123004AA0223ADF8101003A90D9043
:10A57000ADF83030ADF834300A9204F11C030B9181
:10A580000DF102020AA98DF80C600E93FFF71AFF75
:10A590000028AED00546AFE70E4B8DF805201B789E
:10A5A0008DF804300FAD00230F938DF83C1002217D
:10A5B000C5E90133C5E90333AB618DF8061001AB82
:10A5C00061E72146044800F01BFF284617B0F0BDA4
:10A5D00088660020183A0400C86A00202DE9F0417E
:10A5E0000B888E88502B8AB00C46054609D0512B1B
:10A5F00004D18B79012B18D0022B26D00AB0BDE8EC
:10A60000F081CB88428D9A4235D0EA8D9A42F5D1BD
:10A61000EB6C002BF2D095F83C20648A92077ED434
:10A620002246294630469847E8E7036C002BE5D0E0
:10A6300090F83C20520701F1080700F192803A4659
:10A64000294630469847A379D6E7A27B042A4AD008
:10A65000062A20D0012AD1D16B6C002BCED095F8E0
:10A660003C20170704F1080400F1A7802246294680
:10A6700030469847C2E7876C002FC6D090F83C3030
:10A68000D9075CD404F11208238A42462946304691
:10A69000B847E388B9E76A6B002AAFD0002202A965
:10A6A0003046CDE90222CDE90422ADF80C208DF828
:10A6B0000830FFF78FFEAC6C4CB195F83C30D807F2
:10A6C00000F19C806B8F6A6B30462946A0476C6B0B
:10A6D0000EF010FD012820467FD00CF0CBFF0023A8
:10A6E000C5E90D338AE7686B002879D0278A628A2A
:10A6F000298F07EB020C00234FF0020E8C45CDE9A9
:10A700000633CDE908338DF818E03ADD40F209133D
:10A71000ADF81C3006A93046FFF75CFE6EE703205B
:10A7200000211A46009006AB0846CDE9066508945C
:10A730000FF034FF00287FF461AFEB6C70E7218AE3
:10A74000069604F11208042300933A46404606ABED
:10A75000CDE9088107950FF021FF002899D1AF6C52
:10A7600092E703211A46009106AB08213846CDE94D
:10A77000066508970FF012FF00287FF464AF2B6C7A
:10A780005DE79DF81EC0ADF81C3004F114014CF0DB
:10A7900001033844ADF822208DF81E300991ADF840
:10A7A000207015F08BFE238A618A6A8F0B449BB25E
:10A7B000934238BF13466B87ACE703211A460091DA
:10A7C00006AB0E212046CDE9066508940FF0E6FEA3
:10A7D00000287FF413AF6B6C48E715F059FE7EE755
:10A7E0004FF480672F870EF085FC0128384616D07D
:10A7F0000CF02EFF002368636B8777E7686B698F27
:10A80000069604230093224606ABCDE90750099132
:10A810000FF0C4FE00287FF45AAFAC6C52E715F07D
:10A820002FFEE7E72DE9F04F0F464FF6FF718F42FD
:10A8300089B0064615461C4626D0F18996F8263082
:10A840008C4228BF0C46DB0615D40DF1100B8C4250
:10A8500028BF0C464FF00008718DADF810405A46E5
:10A860004FF6FF700595ADF81280FFF7ADFD40463D
:10A8700009B0BDE8F08F3948394602F0EDF908B16A
:10A88000F18D31B9F189E0E7344802F0F1F907467A
:10A89000D3E7002002230DF1100BADF81200ADF844
:10A8A00010305A460DF10E0338460593FFF78EFD22
:10A8B00043F2014398424FD000284AD19DF80E80C0
:10A8C00008F00108B8F1000F46D02448394602F0DC
:10A8D000DBF98246A0B300F095FA033883B2002C6E
:10A8E000C5D0CDF804804FF00009984605E0BDF8CA
:10A8F0000E30E41AA4B21D4444B3504600F0B6FA38
:10A90000A04503464246594628BF22463846BBB1B9
:10A91000ADF80E204FF00102738D8DF812200DF16D
:10A920000E02CDE90625CDF813908DF81790ADF8FD
:10A930001030FFF74DFD0028D9D0504600F0A0FAA6
:10A940004FF00008404609B0BDE8F08FDDF8048004
:10A950008DE700F00108B5E7F18978E78C66002003
:10A9600030B4144B144A19780260142500220324D1
:10A97000C58180F82940C0E90D2230BCC0E9102211
:10A98000C0E9122282718280826080F83C200273CA
:10A99000026182618283C0F81E20C0F8222080F804
:10A9A000262042614285C262028680F8271080F824
:10A9B00028107047183A0400243A040070B483B099
:10A9C0006D4685E806000446164944F8041B034614
:10A9D00095E80300144E84E80500317883F82710C9
:10A9E00003200022142583F829001846C3E90D220C
:10A9F000C3E91022C3E91222DD8183F83C201A73D7
:10AA00001A619A619A83C3F81E20C3F8222083F842
:10AA100026205A615A85DA621A8683F8281003B014
:10AA200070BC7047243A0400183A040010B483B094
:10AA30006C4684E80600034694E80300043383E888
:10AA4000050003B05DF8044B704700BF0069704714
:10AA500001230373704700BF80F82610704700BFC2
:10AA600041B190F82930C181002262F3000380F8DF
:10AA70002930704790F82930012262F3000380F8F2
:10AA80002930704780F8271080F82820704700BFD1
:10AA900090F83C30816462F3000380F83C307047EA
:10AAA00001774277704700BF51F82A2F026049684A
:10AAB0004160704730B5C48983B0944223460D4647
:10AAC00028BF1346418D019500246A464FF6FF705A
:10AAD000ADF80030ADF80240FFF776FC18B9BDF8CC
:10AAE000000003B030BD204603B030BD30B5C3898F
:10AAF00085B00A46012B28BF0123418D8DF8072020
:10AB000000240DF1070502AA4FF6FF70ADF80830DA
:10AB1000ADF80A400395FFF757FC18B9BDF80800D7
:10AB200005B030BD204605B030BD00BF10B490F870
:10AB3000264014F0100403D05DF8044BFFF772BEFA
:10AB400020465DF8044B7047A1DF7047A3DF7047D4
:10AB5000A4DF704700238382704700BF806900F044
:10AB6000E3B800BF808A70472DE9F0410B88CE889A
:10AB7000382B86B00C46054606D0392B66D0362BCE
:10AB800043D006B0BDE8F08100F11C07002E36D19D
:10AB90000A8A3846314602F0A1FC94F80C80B8F1DC
:10ABA000010F2CD0B8F1040FEBD1A86900F0BCF86C
:10ABB00001465C4802F068F800F024F92A8D053857
:10ABC00083B2934228BF1346002B00F09A80218A5B
:10ABD000E289A869AC8A8DF80D600A44696A05911A
:10ABE0008DF80C80ADF81230ADF81020ADF80E40A5
:10ABF00000F09AF803A9FFF7A9FF0028C1D0384652
:10AC000002F084FC06B0BDE8F081806900F08CF8A9
:10AC10000146444802F038F800F0F4F807466EBBED
:10AC200005F11C06E289304604F1100102F056FCE1
:10AC30002B8D2BB1F81EE38980B20138834255DA9F
:10AC4000304602F063FC06B0BDE8F0810B7B012BBF
:10AC50001AD0022B95D1036B002B92D090F83420A0
:10AC60008F8892071FD401F11006E28931462846E9
:10AC7000984761893846FFF76BFF82E705F11C07AB
:10AC8000384602F043FCBDE7C36A002B3FF479AFBE
:10AC900090F83420D10717D404F11006E289314628
:10ACA000284698476DE7C989039004F110060320F0
:10ACB0001A46009003AB3046CDE904610FF06EFCFC
:10ACC0000028D6D12B6BD0E7E189039004F1100660
:10ACD00003201A46009003AB3046CDE904610FF023
:10ACE0005DFC00287FF44DAFEB6AD7E7A86900F060
:10ACF0001BF86A8DA98A92B2FFF726FF00289FD120
:10AD00003FE7AA8AA869ADF80E2040F20511ADF818
:10AD10000C10CDE9043300F007F803A9FFF716FF84
:10AD20006DE700BF8C660020808870478FDF70471A
:10AD300090DF7047B1DF7047B5DF704710B5074B44
:10AD400003600446406A0DF0B3FAA06A0DF0B0FA51
:10AD5000E06A08B10DF0ACFA204610BD3C3A0400A0
:10AD600010B5094B03600446406A0DF0A1FAA06AD1
:10AD70000DF09EFAE06A08B10DF09AFA204610F044
:10AD80008BFA204610BD00BF3C3A040070B5044663
:10AD90000D4692E80300D279A5800E0C60612183F4
:10ADA0006273114D2560012217204FF4D8112274CF
:10ADB0002273E080A16018461946A6769DF81050CF
:10ADC0000CF0D8FC2946606228460CF0D3FC4FF406
:10ADD000885100234FF6FF726182A062E281E36234
:10ADE0006374204670BD00BF3C3A0400007C70478D
:10ADF000407C7047C07C113818BF0120704700BFED
:10AE0000407B7047C0887047008970474B7C10B406
:10AE10004BB11B310C688A888B79046082805DF8A5
:10AE2000044B837170471431F4E700BF2DE9F04102
:10AE300086B004ACB0F8048016460D4620464FF4A8
:10AE4000285101F029FACDE900564FF6FF7701208D
:10AE500094E80C004146CDE90207034800F06CF984
:10AE600006B0BDE8F08100BFC86A002008B56621C1
:10AE7000406A0DF0A1F8003818BF012008BD00BFDE
:10AE800008B500231A461946406A0CF0A5FC0038A4
:10AE900018BF012008BD00BF818800F11B02407B64
:10AEA00002F07ABB38B50A4605460C468188407BDD
:10AEB00002F05EFB2146012051F8483FC5F81B30E7
:10AEC0008B888A7985F82120A5F81F30687438BDF1
:10AED00038B50A4604460D4600F11401407B02F0E5
:10AEE00091FB607450B1294651F8483FC4F81B30BB
:10AEF0008B888A7984F82120A4F81F3038BD00BFE0
:10AF000010B5447C24B100F11B01407B02F058FBDA
:10AF1000204610BD70B50B88113B82B00C4605462B
:10AF2000462B2BD8DFE803F0383B2A2A2A2A2A2A84
:10AF30002A3E2A2A2A2A2A2A4C545A602A2A2A2AAB
:10AF40002A2A2A2A2A2A2A2A2A2A2A2A2A2A2A2A61
:10AF50002A632A902A2A2A2A2A2A2A2A2A2A2A2AB2
:10AF60002A2A2A2A2A2A2A2A2A24662A712C800096
:10AF70000023A8881A461946FFF7DCFE02B070BD10
:10AF80008B79002BFAD1C06AAB740028F6D01A4630
:10AF900019460CF021FCF1E700230374EEE74B891E
:10AFA0000381EBE70B7AC374112BE7D0818800F1A2
:10AFB0001B02407B02F074FC03460028DED1D8E778
:10AFC000002301A98088ADF80430FFF7AFFED5E774
:10AFD0000B7A002BD2D14B7A0373CFE700221146B4
:10AFE0008088FFF7A5FEC9E70B894381C6E74B8937
:10AFF000C380C3E7C06A0123AB740028BED000231E
:10B000001A4619460CF0E8FBB8E7417B164801F0F8
:10B0100033FEE3880146994228BF194689B2A888C1
:10B02000E980FFF789FEA9E78B79002BA6D00026DF
:10B0300000231A461946686A0CF0CEFB0136A27945
:10B04000F3B29A42F4D899E78B7A002B96D0002677
:10B0500000231A461946A86A0CF0BEFB0136A27AF4
:10B06000F3B29A42F4D889E78C66002010B5044602
:10B07000043002F0D3F9034B2360002323752046EC
:10B0800010BD00BF0100FFFF017D01B1704710B589
:10B090000446043002F0CCF90123237510BD00BF33
:10B0A000007D70470B88322B10B504D0332B17D09E
:10B0B000302B08D010BDCB88DBB1041D2046BDE885
:10B0C000104002F023BACB88041D002BF6D14B8927
:10B0D000002BF3D00A3120460A2202F0FFF9EDE7F7
:10B0E000CB88002BE9D14A89002AE6D002EB420244
:10B0F00004E04A89002AE0D002EB82025200041DDB
:10B10000023292B20A31204602F0E8F9D6E700BFD7
:10B11000A0DF704710B5044600F5F87002F07EF924
:10B120002046F822002115F0F1F9F822A01800219C
:10B1300015F0ECF9204610BD2DE9F04385B0054629
:10B14000BDF83800ADF80C00BDF83C00ADF80E00BD
:10B15000E8461E48BDF8349088E80C000F4601F020
:10B1600093FD05F5F875064603E0FFF74DFE0CF07C
:10B1700055FA284602F0B0F904463046002CF4D1C6
:10B180000121284602F054F90C994A46284602F05B
:10B190006BF94146384603AAFFF7BAFF30B128469B
:10B1A00002F050F9204605B0BDE8F0834FF4FA7183
:10B1B000284602F05FF920EAE074284602F042F9DE
:10B1C000A4B2204605B0BDE8F08300BF8C66002025
:10B1D0002DE9F04F8F880D8885B0884604463946A2
:10B1E000864801F051FDA5F11003012B814640F284
:10B1F000908094F854203AB3002633461633502DED
:10B2000054F823A069D0512D1AD198F80630B8F817
:10B2100008B0022B53D0BBF1000F11D05146684645
:10B22000FFF742FCBDF800305B4559D0514602A8FB
:10B23000FFF73AFCBDF80C305B4551D094F8542030
:10B240000136F3B29342D9D394F84C31002B00F07D
:10B25000D18004F5A679002604E094F84C3101363B
:10B26000B34220DD59F8040FFFF778FCB842F4D15F
:10B27000382D03D0392D01D0362DEED1B8F80AA0E3
:10B28000BAF1000FE9D0D9F800B05846FFF76AFCD0
:10B290005045E2D158464146FFF766FC94F84C31E0
:10B2A0000136B342DEDC112D55D0352D04D1B8F86E
:10B2B0000A30002B40F08F8005B0BDE8F08F98F881
:10B2C0000E30062BA7D1DAF800305046DB68414635
:10B2D00098474846FFF78EFDB0E7B8F806B09AE702
:10B2E000DAF800305046DB68414698474846FFF799
:10B2F00081FD0028A2D0502DA0D1514602A8FFF711
:10B30000D3FBBDF80C305B4598D14846FFF7C4FD30
:10B3100094E72378002B3FF46CAF0026112D3346C1
:10B320000CD004EB83033946586803685B68984780
:10B3300001362278F3B29A42F3D85AE704EB83033A
:10B340003946586803681B68984701362278F3B27B
:10B350009A42F3D84DE7D3B10026334605E094F87E
:10B360004C210136F3B29A4211D904EB8305D5F88A
:10B370005001FFF7F3FBB842F1D1D5F85001FFF7C8
:10B38000E9FB013694F84C21F3B29A42EDD894F8D7
:10B39000F820002A90D000252B4604EB8303D3F835
:10B3A000FC008388BB420AD00135EBB2934283D2C2
:10B3B00004EB8303D3F8FC008388BB42F4D1036819
:10B3C0001B689847013594F8F820EBB29342E4D318
:10B3D00005B0BDE8F08F04F5F874B8F80C202046ED
:10B3E00008F1100102F07AF8204605B0BDE8F04FF0
:10B3F00002F08CB8112D7FF458AFC8E78C6600209E
:10B4000090F85420272A0CD810B4034602F11604F1
:10B41000013280F8542043F8241001205DF8044BD9
:10B4200070470020704700BF0378132B06D800EB4D
:10B430008302013303700120516070470020704780
:10B4400075DF704778DF70477ADF7047054A03463B
:10B4500092E80300002283E80300C3E902221846B1
:10B46000704700BF443A040008B5FFF7EDFF08B18C
:10B47000002008BDFFF7E6FFB0FA80F0400908BDE4
:10B48000F8B500250D4F2E4601E0142D14D0A9B2B9
:10B49000384601F0F9FB013504460028F5D0FFF7E6
:10B4A000A5FC0028F1D02046FFF7AAFC012804BF24
:10B4B0000136F6B2142DEAD13046F8BD8C66002074
:10B4C00008B501804280FFF7BFFFB0FA80F0400965
:10B4D00008BD00BF81607047C16070470A88102AAC
:10B4E00000D070470A8A0B460188914210B4448804
:10B4F00004D8A24202D85DF8044B704701465DF8BB
:10B50000044B9888FFF79CBF8ADF704730B40D4C1E
:10B51000C4621F25002250248584A025C0E9112281
:10B52000C0E90F22A0F84650A0F84840006230BCA5
:10B530008262028680F838204263C264A0F85020FC
:10B54000704700BF000180002DE9F04F8FB002AEC0
:10B55000304686E80C000C4600F0A4FEC5B2102D63
:10B560004FD0039E07220623A16994F81C900191F5
:10B570008DF815208DF81430ED080DF114080DF13B
:10B58000160A0027B9F1010F0C97CDE90677CDE92E
:10B590000877CDE90A77CDF833700ED998F8000016
:10B5A00001994B464A7882420FD00A78D44323440B
:10B5B000013213F0FF031144F4D108F10108C24530
:10B5C000E0D100200FB0BDE8F08F11F8024B013C34
:10B5D000E4B2224606A814F071FF0DF1180B1CB955
:10B5E000EBE714F0FF04E8D058462A46314614F041
:10B5F00057FF641BAB440028F3D101200FB0BDE816
:10B60000F08F03220223AFE7F0B50B888D88103B43
:10B6100085B00E4604460D2B2CD8DFE803F06707F3
:10B620002B2B2B2B2B2B2B2B2B742B2D836AEB40B3
:10B63000DB071FD54C48FEF765FED8B9A36A94F81E
:10B640002C20012606FA05F523EA0505A5628AB92C
:10B6500094F82D3073B11F232462A38404F12001D8
:10B6600004F14400FFF750FF20B9404801F024FBEB
:10B6700084F82C6005B0F0BD90F92E2091F91B30B4
:10B680009A422CDC90F8383001F108079BB1002574
:10B6900002E0D5B2AB420CD9636B03EBC5030CCB14
:10B6A00039462046FFF750FF94F838306A1C0028CE
:10B6B000EFD09D4213D094F82F30002B48D096F84D
:10B6C0002430012B0BD9316A4A78FF2A2FD00A780F
:10B6D000D0430344013213F0FF031144F4D104F1C9
:10B6E00020010020FFF710FF05B0F0BDCB7B022B3F
:10B6F000C0D1836A012202FA05F52B43002283623E
:10B7000080F82C20B6E70B7A012BB3D1002580F806
:10B710002C50164801F0E4FA226C002AAAD00095B9
:10B7200003AB2946284603950EF038FFA2E711F82F
:10B73000025B6A1ED2B2022A28BF022203A814F0BA
:10B74000BDFE012DCBD0228EBDF80C309A42C6D161
:10B75000E26B002A8ED001230093384603AB2421EC
:10B7600003970EF01BFF85E79C6600208C66002087
:10B7700046DF70477FDF704780DF704781DF7047AB
:10B7800085DF704786DF704738B51C460D46034697
:10B79000114628462246984734B1014600222846E1
:10B7A000BDE83840FFF7E8BF38BD00BF10B504461C
:10B7B000083002F033FB064B236003220023227182
:10B7C000C4F81034C4F81434C4F81834204610BD3A
:10B7D0003507100330B50446ADF55F7D00F108056F
:10B7E0008F4802F01BFA0821284602F01BFB68462E
:10B7F00002F02EFB6846082102F02EFB694628461F
:10B8000002F092FA04F54F714122684602F03EFBC5
:10B81000684602F037FB94F85C0394F85B2394F8D5
:10B820003D1394F83E3384F83D0384F83E2394F8A6
:10B830005A0394F8592394F83F5384F85C1384F81E
:10B840005B3394F8401394F8413384F83F0384F851
:10B85000402394F8580394F8572384F85A5384F8F3
:10B86000591394F8425394F8431384F8410384F82D
:10B87000583394F8560394F8443384F8422394F8E8
:10B88000552384F8575384F8430384F8442384F8F9
:10B89000553384F8561394F8451394F8540394F8E8
:10B8A000532394F8463384F8450384F8462394F8E8
:10B8B000520394F8512394F8475384F8541384F8AE
:10B8C000533394F8481394F8493384F8470384F8C1
:10B8D000482394F8500394F84F2384F8525384F883
:10B8E000511394F84A5394F84B1384F8490384F89D
:10B8F000503394F84E0394F84C3384F84A2394F868
:10B900004D2384F84F5384F84B0384F84C2384F878
:10B910004D3384F84E1394F85D1394F87C0394F837
:10B920007B2394F85E3384F85D0384F85E2394F8F7
:10B930007A0394F8792394F85F5384F87C1384F89D
:10B940007B3394F8601394F8613384F85F0384F8D0
:10B95000602394F8780394F8772384F87A5384F872
:10B96000791394F8625394F8631384F8610384F8AC
:10B97000783394F8760394F8643384F8622394F867
:10B98000752384F8775384F8630384F8642384F878
:10B99000753384F8761394F8651394F8740394F867
:10B9A000732394F8663384F8650384F8662394F867
:10B9B000720394F8712394F8675384F8741384F82D
:10B9C000733394F8681394F8693384F8670384F840
:10B9D000682394F8700394F86F2384F8725384F802
:10B9E000711394F86A5394F86B1384F8690384F81C
:10B9F000703394F86E0394F86C3384F86A2394F8E7
:10BA00006D2384F86B03012084F86F5384F86E1360
:10BA100084F86C2384F86D330DF55F7D30BD00BF75
:10BA2000146E00200B7803F0FE03042B01D00020DD
:10BA3000704770B515468CB00C462022002104A832
:10BA400014F064FD28686968AA68EB686D460FC544
:10BA50009DF800109DF80F209DF801609DF80E5094
:10BA60009DF802008DF80F1023469DF80D108DF8FB
:10BA700000209DF803208DF80E608DF801509DF890
:10BA80000C609DF804508DF80D008DF802109DF8A3
:10BA90000B009DF805108DF80C209DF80A208DF8FC
:10BAA00003608DF80B508DF804008DF805208DF89B
:10BAB0000A109DF8061033F8042FADF810209B787B
:10BAC0009DF809209DF81D009DF810609DF81F50FD
:10BAD0008DF809108DF806209DF811109DF81E2094
